{
  "_format": "hh3-artifact-1",
  "contractName": "scholarship",
  "sourceName": "contracts/scholarship.sol",
  "abi": [
    {
      "inputs": [],
      "stateMutability": "nonpayable",
      "type": "constructor"
    },
    {
      "anonymous": false,
      "inputs": [
        {
          "indexed": true,
          "internalType": "uint256",
          "name": "scholarshipId",
          "type": "uint256"
        },
        {
          "indexed": true,
          "internalType": "address",
          "name": "student",
          "type": "address"
        },
        {
          "indexed": false,
          "internalType": "uint8",
          "name": "score",
          "type": "uint8"
        }
      ],
      "name": "Applied",
      "type": "event"
    },
    {
      "anonymous": false,
      "inputs": [
        {
          "indexed": true,
          "internalType": "uint256",
          "name": "scholarshipId",
          "type": "uint256"
        },
        {
          "indexed": true,
          "internalType": "address",
          "name": "student",
          "type": "address"
        },
        {
          "indexed": false,
          "internalType": "uint256",
          "name": "amount",
          "type": "uint256"
        }
      ],
      "name": "Disbursed",
      "type": "event"
    },
    {
      "anonymous": false,
      "inputs": [
        {
          "indexed": false,
          "internalType": "uint256",
          "name": "id",
          "type": "uint256"
        },
        {
          "indexed": false,
          "internalType": "string",
          "name": "title",
          "type": "string"
        },
        {
          "indexed": false,
          "internalType": "uint256",
          "name": "amount",
          "type": "uint256"
        }
      ],
      "name": "ScholarshipCreated",
      "type": "event"
    },
    {
      "inputs": [
        {
          "internalType": "string",
          "name": "_title",
          "type": "string"
        },
        {
          "internalType": "uint256",
          "name": "_amount",
          "type": "uint256"
        },
        {
          "internalType": "uint8",
          "name": "_minScore",
          "type": "uint8"
        },
        {
          "internalType": "uint8",
          "name": "_totalSeats",
          "type": "uint8"
        },
        {
          "internalType": "uint8",
          "name": "_requiredAttendance",
          "type": "uint8"
        },
        {
          "internalType": "uint8",
          "name": "_requiredAcademic",
          "type": "uint8"
        }
      ],
      "name": "addScholarship",
      "outputs": [],
      "stateMutability": "nonpayable",
      "type": "function"
    },
    {
      "inputs": [],
      "name": "admin",
      "outputs": [
        {
          "internalType": "address",
          "name": "",
          "type": "address"
        }
      ],
      "stateMutability": "view",
      "type": "function"
    },
    {
      "inputs": [
        {
          "internalType": "uint256",
          "name": "_scholarshipId",
          "type": "uint256"
        },
        {
          "internalType": "string",
          "name": "_studentName",
          "type": "string"
        },
        {
          "internalType": "string",
          "name": "_regNumber",
          "type": "string"
        },
        {
          "internalType": "string",
          "name": "_college",
          "type": "string"
        },
        {
          "internalType": "string",
          "name": "_course",
          "type": "string"
        },
        {
          "internalType": "uint8",
          "name": "_attendancePercent",
          "type": "uint8"
        },
        {
          "internalType": "uint8",
          "name": "_academicMark",
          "type": "uint8"
        }
      ],
      "name": "applyForScholarship",
      "outputs": [],
      "stateMutability": "nonpayable",
      "type": "function"
    },
    {
      "inputs": [
        {
          "internalType": "uint256",
          "name": "id",
          "type": "uint256"
        }
      ],
      "name": "getApplicationCount",
      "outputs": [
        {
          "internalType": "uint256",
          "name": "",
          "type": "uint256"
        }
      ],
      "stateMutability": "view",
      "type": "function"
    },
    {
      "inputs": [
        {
          "internalType": "uint256",
          "name": "_scholarshipId",
          "type": "uint256"
        }
      ],
      "name": "getApplications",
      "outputs": [
        {
          "components": [
            {
              "internalType": "address",
              "name": "applicant",
              "type": "address"
            },
            {
              "internalType": "string",
              "name": "studentName",
              "type": "string"
            },
            {
              "internalType": "string",
              "name": "regNumber",
              "type": "string"
            },
            {
              "internalType": "string",
              "name": "college",
              "type": "string"
            },
            {
              "internalType": "string",
              "name": "course",
              "type": "string"
            },
            {
              "internalType": "uint8",
              "name": "attendancePercent",
              "type": "uint8"
            },
            {
              "internalType": "uint8",
              "name": "academicMark",
              "type": "uint8"
            },
            {
              "internalType": "uint8",
              "name": "score",
              "type": "uint8"
            },
            {
              "internalType": "bool",
              "name": "received",
              "type": "bool"
            }
          ],
          "internalType": "struct scholarship.Application[]",
          "name": "",
          "type": "tuple[]"
        }
      ],
      "stateMutability": "view",
      "type": "function"
    },
    {
      "inputs": [
        {
          "internalType": "uint256",
          "name": "_scholarshipId",
          "type": "uint256"
        }
      ],
      "name": "getSelectedApplicants",
      "outputs": [
        {
          "components": [
            {
              "internalType": "address",
              "name": "applicant",
              "type": "address"
            },
            {
              "internalType": "string",
              "name": "studentName",
              "type": "string"
            },
            {
              "internalType": "string",
              "name": "regNumber",
              "type": "string"
            },
            {
              "internalType": "string",
              "name": "college",
              "type": "string"
            },
            {
              "internalType": "string",
              "name": "course",
              "type": "string"
            },
            {
              "internalType": "uint8",
              "name": "attendancePercent",
              "type": "uint8"
            },
            {
              "internalType": "uint8",
              "name": "academicMark",
              "type": "uint8"
            },
            {
              "internalType": "uint8",
              "name": "score",
              "type": "uint8"
            },
            {
              "internalType": "bool",
              "name": "received",
              "type": "bool"
            }
          ],
          "internalType": "struct scholarship.Application[]",
          "name": "",
          "type": "tuple[]"
        }
      ],
      "stateMutability": "view",
      "type": "function"
    },
    {
      "inputs": [
        {
          "internalType": "uint256",
          "name": "",
          "type": "uint256"
        },
        {
          "internalType": "address",
          "name": "",
          "type": "address"
        }
      ],
      "name": "hasApplied",
      "outputs": [
        {
          "internalType": "bool",
          "name": "",
          "type": "bool"
        }
      ],
      "stateMutability": "view",
      "type": "function"
    },
    {
      "inputs": [
        {
          "internalType": "uint256",
          "name": "",
          "type": "uint256"
        },
        {
          "internalType": "uint256",
          "name": "",
          "type": "uint256"
        }
      ],
      "name": "scholarshipApplications",
      "outputs": [
        {
          "internalType": "address",
          "name": "applicant",
          "type": "address"
        },
        {
          "internalType": "string",
          "name": "studentName",
          "type": "string"
        },
        {
          "internalType": "string",
          "name": "regNumber",
          "type": "string"
        },
        {
          "internalType": "string",
          "name": "college",
          "type": "string"
        },
        {
          "internalType": "string",
          "name": "course",
          "type": "string"
        },
        {
          "internalType": "uint8",
          "name": "attendancePercent",
          "type": "uint8"
        },
        {
          "internalType": "uint8",
          "name": "academicMark",
          "type": "uint8"
        },
        {
          "internalType": "uint8",
          "name": "score",
          "type": "uint8"
        },
        {
          "internalType": "bool",
          "name": "received",
          "type": "bool"
        }
      ],
      "stateMutability": "view",
      "type": "function"
    },
    {
      "inputs": [],
      "name": "scholarshipCounter",
      "outputs": [
        {
          "internalType": "uint256",
          "name": "",
          "type": "uint256"
        }
      ],
      "stateMutability": "view",
      "type": "function"
    },
    {
      "inputs": [
        {
          "internalType": "uint256",
          "name": "",
          "type": "uint256"
        }
      ],
      "name": "scholarships",
      "outputs": [
        {
          "internalType": "uint256",
          "name": "id",
          "type": "uint256"
        },
        {
          "internalType": "string",
          "name": "title",
          "type": "string"
        },
        {
          "internalType": "uint256",
          "name": "amount",
          "type": "uint256"
        },
        {
          "internalType": "uint8",
          "name": "minScore",
          "type": "uint8"
        },
        {
          "internalType": "uint8",
          "name": "totalSeats",
          "type": "uint8"
        },
        {
          "internalType": "uint8",
          "name": "requiredAttendance",
          "type": "uint8"
        },
        {
          "internalType": "uint8",
          "name": "requiredAcademic",
          "type": "uint8"
        },
        {
          "internalType": "bool",
          "name": "isActive",
          "type": "bool"
        },
        {
          "internalType": "bool",
          "name": "isProcessed",
          "type": "bool"
        }
      ],
      "stateMutability": "view",
      "type": "function"
    },
    {
      "inputs": [
        {
          "internalType": "uint256",
          "name": "_scholarshipId",
          "type": "uint256"
        }
      ],
      "name": "selectTopApplicants",
      "outputs": [],
      "stateMutability": "nonpayable",
      "type": "function"
    },
    {
      "stateMutability": "payable",
      "type": "receive"
    }
  ],
  "bytecode": "0x6080604052348015600e575f5ffd5b505f80546001600160a01b0319163317905561252a8061002d5f395ff3fe60806040526004361061009d575f3560e01c8063a39bf54411610062578063a39bf54414610174578063b629dc1f146101bd578063bc8c937d146101dc578063e6e43ac3146101fb578063f851a4401461022f578063fadd2b6914610265575f5ffd5b80632863ab69146100a857806339dc58c6146100c957806354613f30146101065780636fb7c14e1461013257806384031d0814610151575f5ffd5b366100a457005b5f5ffd5b3480156100b3575f5ffd5b506100c76100c2366004611dd1565b610290565b005b3480156100d4575f5ffd5b506100e86100e3366004611eb3565b610621565b6040516100fd99989796959493929190611ef8565b60405180910390f35b348015610111575f5ffd5b50610125610120366004611eb3565b610703565b6040516100fd9190611f54565b34801561013d575f5ffd5b506100c761014c36600461207d565b610b60565b34801561015c575f5ffd5b5061016660015481565b6040519081526020016100fd565b34801561017f575f5ffd5b506101ad61018e366004612100565b600460209081525f928352604080842090915290825290205460ff1681565b60405190151581526020016100fd565b3480156101c8575f5ffd5b506100c76101d7366004611eb3565b610e44565b3480156101e7575f5ffd5b506101256101f6366004611eb3565b61169d565b348015610206575f5ffd5b5061021a610215366004612139565b6119a4565b6040516100fd99989796959493929190612159565b34801561023a575f5ffd5b505f5461024d906001600160a01b031681565b6040516001600160a01b0390911681526020016100fd565b348015610270575f5ffd5b5061016661027f366004611eb3565b5f9081526003602052604090205490565b5f8781526002602052604090206003810154640100000000900460ff166102f75760405162461bcd60e51b81526020600482015260166024820152755363686f6c617273686970206e6f742061637469766560501b60448201526064015b60405180910390fd5b5f88815260046020908152604080832033845290915290205460ff16156103525760405162461bcd60e51b815260206004820152600f60248201526e105b1c9958591e48185c1c1b1a5959608a1b60448201526064016102ee565b60648360ff161115801561036a575060648260ff1611155b6103ad5760405162461bcd60e51b8152602060048201526014602482015273496e76616c696420696e7075742076616c75657360601b60448201526064016102ee565b600381015460ff620100009091048116908416101561040e5760405162461bcd60e51b815260206004820152601a60248201527f417474656e64616e63652062656c6f77207468726573686f6c6400000000000060448201526064016102ee565b600381015460ff6301000000909104811690831610156104685760405162461bcd60e51b815260206004820152601560248201527413585c9adcc818995b1bddc81d1a1c995cda1bdb19605a1b60448201526064016102ee565b5f6104738385612200565b5f8a81526003602090815260408083208151610120810183523381528084018e81529281018d9052606081018c9052608081018b905260ff8a811660a083015289811660c0830152861660e0820152610100810185905281546001808201845592865293909420845160069094020180546001600160a01b0319166001600160a01b0390941693909317835590519394509192909182019061051590826122a2565b506040820151600282019061052a90826122a2565b506060820151600382019061053f90826122a2565b506080820151600482019061055490826122a2565b5060a08201516005909101805460c084015160e085015161010095860151151563010000000263ff0000001960ff92831662010000021663ffff00001993831690970261ffff1990941691909516179190911716929092171790555f89815260046020908152604080832033808552925291829020805460ff1916600117905590518a907fe16892d79bf1bda42d2f7448597e39c3c9575cfa509f0ba25f6ea6d9e66b6d799061060e90859060ff91909116815260200190565b60405180910390a3505050505050505050565b60026020525f9081526040902080546001820180549192916106429061221f565b80601f016020809104026020016040519081016040528092919081815260200182805461066e9061221f565b80156106b95780601f10610690576101008083540402835291602001916106b9565b820191905f5260205f20905b81548152906001019060200180831161069c57829003601f168201915b505050600284015460039094015492939260ff8082169350610100820481169250620100008204811691630100000081048216916401000000008204811691600160281b90041689565b5f818152600360205260408120606091805b82548110156107685782818154811061073057610730612360565b905f5260205f20906006020160050160039054906101000a900460ff1615610760578161075c81612374565b9250505b600101610715565b505f8167ffffffffffffffff81111561078357610783611d1d565b60405190808252806020026020018201604052801561081257816020015b6107ff6040518061012001604052805f6001600160a01b03168152602001606081526020016060815260200160608152602001606081526020015f60ff1681526020015f60ff1681526020015f60ff1681526020015f151581525090565b8152602001906001900390816107a15790505b5090505f805b845460ff82161015610b5557848160ff168154811061083957610839612360565b905f5260205f20906006020160050160039054906101000a900460ff1615610b4357848160ff168154811061087057610870612360565b5f91825260209182902060408051610120810190915260069092020180546001600160a01b0316825260018101805492939192918401916108b09061221f565b80601f01602080910402602001604051908101604052809291908181526020018280546108dc9061221f565b80156109275780601f106108fe57610100808354040283529160200191610927565b820191905f5260205f20905b81548152906001019060200180831161090a57829003601f168201915b505050505081526020016002820180546109409061221f565b80601f016020809104026020016040519081016040528092919081815260200182805461096c9061221f565b80156109b75780601f1061098e576101008083540402835291602001916109b7565b820191905f5260205f20905b81548152906001019060200180831161099a57829003601f168201915b505050505081526020016003820180546109d09061221f565b80601f01602080910402602001604051908101604052809291908181526020018280546109fc9061221f565b8015610a475780601f10610a1e57610100808354040283529160200191610a47565b820191905f5260205f20905b815481529060010190602001808311610a2a57829003601f168201915b50505050508152602001600482018054610a609061221f565b80601f0160208091040260200160405190810160405280929190818152602001828054610a8c9061221f565b8015610ad75780601f10610aae57610100808354040283529160200191610ad7565b820191905f5260205f20905b815481529060010190602001808311610aba57829003601f168201915b50505091835250506005919091015460ff80821660208401526101008204811660408401526201000082048116606084015263010000009091041615156080909101528383610b2581612374565b945081518110610b3757610b37612360565b60200260200101819052505b80610b4d8161238c565b915050610818565b509095945050505050565b5f546001600160a01b03163314610b895760405162461bcd60e51b81526004016102ee906123aa565b5f8511610bcd5760405162461bcd60e51b81526020600482015260126024820152710416d6f756e74206d757374206265203e20360741b60448201526064016102ee565b60c88460ff161115610c155760405162461bcd60e51b8152602060048201526011602482015270496e76616c6964206d696e2073636f726560781b60448201526064016102ee565b5f8360ff1611610c675760405162461bcd60e51b815260206004820152601760248201527f546f74616c207365617473206d757374206265203e203000000000000000000060448201526064016102ee565b60648260ff1611158015610c7f575060648160ff1611155b610ccb5760405162461bcd60e51b815260206004820152601960248201527f496e76616c69642070657263656e7461676520696e707574730000000000000060448201526064016102ee565b60018054905f610cda83612374565b909155505060408051610120810182526001805480835260208084018b81528486018b905260ff808b166060870152898116608087015288811660a0870152871660c086015260e085018490525f6101008601819052928352600290915293902082518155925191929190820190610d5290826122a2565b506040828101516002830155606083015160039092018054608085015160a086015160c087015160e08801516101009889015160ff98891661ffff19909616959095179388169098029290921763ffff00001916620100009187169190910263ff000000191617630100000095909116949094029390931765ffff0000000019166401000000009415159490940265ff0000000000191693909317600160281b921515929092029190911790915560015490517fcd613ed337e0507220dae4ee9a4abc53280c43016d259a8ea66bf5e8bfe57b8791610e3491899089906123ec565b60405180910390a1505050505050565b5f546001600160a01b03163314610e6d5760405162461bcd60e51b81526004016102ee906123aa565b5f8181526002602052604090206003810154640100000000900460ff16610ecf5760405162461bcd60e51b81526020600482015260166024820152755363686f6c617273686970206e6f742061637469766560501b60448201526064016102ee565b6003810154600160281b900460ff1615610f1f5760405162461bcd60e51b8152602060048201526011602482015270105b1c9958591e481c1c9bd8d95cdcd959607a1b60448201526064016102ee565b5f8281526003602052604090208054610f6c5760405162461bcd60e51b815260206004820152600f60248201526e4e6f206170706c69636174696f6e7360881b60448201526064016102ee565b5f5b81548110156114e2575f610f83826001612414565b90505b82548110156114d957828281548110610fa157610fa1612360565b905f5260205f20906006020160050160029054906101000a900460ff1660ff16838281548110610fd357610fd3612360565b5f91825260209091206006909102016005015462010000900460ff1611156114d1575f83838154811061100857611008612360565b5f91825260209182902060408051610120810190915260069092020180546001600160a01b0316825260018101805492939192918401916110489061221f565b80601f01602080910402602001604051908101604052809291908181526020018280546110749061221f565b80156110bf5780601f10611096576101008083540402835291602001916110bf565b820191905f5260205f20905b8154815290600101906020018083116110a257829003601f168201915b505050505081526020016002820180546110d89061221f565b80601f01602080910402602001604051908101604052809291908181526020018280546111049061221f565b801561114f5780601f106111265761010080835404028352916020019161114f565b820191905f5260205f20905b81548152906001019060200180831161113257829003601f168201915b505050505081526020016003820180546111689061221f565b80601f01602080910402602001604051908101604052809291908181526020018280546111949061221f565b80156111df5780601f106111b6576101008083540402835291602001916111df565b820191905f5260205f20905b8154815290600101906020018083116111c257829003601f168201915b505050505081526020016004820180546111f89061221f565b80601f01602080910402602001604051908101604052809291908181526020018280546112249061221f565b801561126f5780601f106112465761010080835404028352916020019161126f565b820191905f5260205f20905b81548152906001019060200180831161125257829003601f168201915b50505091835250506005919091015460ff808216602084015261010082048116604084015262010000820481166060840152630100000090910416151560809091015284549091508490839081106112c9576112c9612360565b905f5260205f2090600602018484815481106112e7576112e7612360565b5f9182526020909120825460069092020180546001600160a01b0319166001600160a01b0390921691909117815560018082019061132790840182612427565b5060028181019061133a90840182612427565b5060038181019061134d90840182612427565b5060048181019061136090840182612427565b506005918201805491909201805460ff19811660ff938416908117835584546101009081900485160261ffff1990921617178082558354620100009081900484160262ff0000198216811783559354630100000090819004909316151590920263ff0000001990931663ffff00001990921691909117919091179055835481908590849081106113f2576113f2612360565b5f91825260209182902083516006929092020180546001600160a01b0319166001600160a01b0390921691909117815590820151600182019061143590826122a2565b506040820151600282019061144a90826122a2565b506060820151600382019061145f90826122a2565b506080820151600482019061147490826122a2565b5060a08201516005909101805460c084015160e085015161010095860151151563010000000263ff0000001960ff92831662010000021663ffff00001993831690970261ffff199094169190951617919091171692909217179055505b600101610f86565b50600101610f6e565b505f805b8254811080156115055750600384015460ff6101009091048116908316105b15611681576003840154835460ff9091169084908390811061152957611529612360565b5f91825260209091206006909102016005015462010000900460ff161080159061157f575082818154811061156057611560612360565b905f5260205f20906006020160050160039054906101000a900460ff16155b1561166f576115bf83828154811061159957611599612360565b5f91825260209091206006909102015460028601546001600160a01b0390911690611c37565b60018382815481106115d3576115d3612360565b905f5260205f20906006020160050160036101000a81548160ff02191690831515021790555081806116049061238c565b92505082818154811061161957611619612360565b5f9182526020918290206006909102015460028601546040519081526001600160a01b039091169187917f8c4905f8a17a430223b23d54ea01f7ebb8c6cc6417d7eae96dfa0010949f0fa0910160405180910390a35b8061167981612374565b9150506114e6565b505050600301805465ff00000000001916600160281b17905550565b606060035f8381526020019081526020015f20805480602002602001604051908101604052809291908181526020015f905b82821015611999575f8481526020908190206040805161012081019091526006850290910180546001600160a01b0316825260018101805492939192918401916117189061221f565b80601f01602080910402602001604051908101604052809291908181526020018280546117449061221f565b801561178f5780601f106117665761010080835404028352916020019161178f565b820191905f5260205f20905b81548152906001019060200180831161177257829003601f168201915b505050505081526020016002820180546117a89061221f565b80601f01602080910402602001604051908101604052809291908181526020018280546117d49061221f565b801561181f5780601f106117f65761010080835404028352916020019161181f565b820191905f5260205f20905b81548152906001019060200180831161180257829003601f168201915b505050505081526020016003820180546118389061221f565b80601f01602080910402602001604051908101604052809291908181526020018280546118649061221f565b80156118af5780601f10611886576101008083540402835291602001916118af565b820191905f5260205f20905b81548152906001019060200180831161189257829003601f168201915b505050505081526020016004820180546118c89061221f565b80601f01602080910402602001604051908101604052809291908181526020018280546118f49061221f565b801561193f5780601f106119165761010080835404028352916020019161193f565b820191905f5260205f20905b81548152906001019060200180831161192257829003601f168201915b50505091835250506005919091015460ff80821660208085019190915261010083048216604085015262010000830482166060850152630100000090920416151560809092019190915290825260019290920191016116cf565b505050509050919050565b6003602052815f5260405f2081815481106119bd575f80fd5b5f918252602090912060069091020180546001820180546001600160a01b0390921694509192506119ed9061221f565b80601f0160208091040260200160405190810160405280929190818152602001828054611a199061221f565b8015611a645780601f10611a3b57610100808354040283529160200191611a64565b820191905f5260205f20905b815481529060010190602001808311611a4757829003601f168201915b505050505090806002018054611a799061221f565b80601f0160208091040260200160405190810160405280929190818152602001828054611aa59061221f565b8015611af05780601f10611ac757610100808354040283529160200191611af0565b820191905f5260205f20905b815481529060010190602001808311611ad357829003601f168201915b505050505090806003018054611b059061221f565b80601f0160208091040260200160405190810160405280929190818152602001828054611b319061221f565b8015611b7c5780601f10611b5357610100808354040283529160200191611b7c565b820191905f5260205f20905b815481529060010190602001808311611b5f57829003601f168201915b505050505090806004018054611b919061221f565b80601f0160208091040260200160405190810160405280929190818152602001828054611bbd9061221f565b8015611c085780601f10611bdf57610100808354040283529160200191611c08565b820191905f5260205f20905b815481529060010190602001808311611beb57829003601f168201915b5050506005909301549192505060ff808216916101008104821691620100008204811691630100000090041689565b80471015611c875760405162461bcd60e51b815260206004820152601d60248201527f496e73756666696369656e7420636f6e74726163742062616c616e636500000060448201526064016102ee565b5f826001600160a01b0316826040515f6040518083038185875af1925050503d805f8114611cd0576040519150601f19603f3d011682016040523d82523d5f602084013e611cd5565b606091505b5050905080611d185760405162461bcd60e51b815260206004820152600f60248201526e151c985b9cd9995c8819985a5b1959608a1b60448201526064016102ee565b505050565b634e487b7160e01b5f52604160045260245ffd5b5f82601f830112611d40575f5ffd5b813567ffffffffffffffff811115611d5a57611d5a611d1d565b604051601f8201601f19908116603f0116810167ffffffffffffffff81118282101715611d8957611d89611d1d565b604052818152838201602001851015611da0575f5ffd5b816020850160208301375f918101602001919091529392505050565b803560ff81168114611dcc575f5ffd5b919050565b5f5f5f5f5f5f5f60e0888a031215611de7575f5ffd5b87359650602088013567ffffffffffffffff811115611e04575f5ffd5b611e108a828b01611d31565b965050604088013567ffffffffffffffff811115611e2c575f5ffd5b611e388a828b01611d31565b955050606088013567ffffffffffffffff811115611e54575f5ffd5b611e608a828b01611d31565b945050608088013567ffffffffffffffff811115611e7c575f5ffd5b611e888a828b01611d31565b935050611e9760a08901611dbc565b9150611ea560c08901611dbc565b905092959891949750929550565b5f60208284031215611ec3575f5ffd5b5035919050565b5f81518084528060208401602086015e5f602082860101526020601f19601f83011685010191505092915050565b89815261012060208201525f611f1261012083018b611eca565b60408301999099525060ff9687166060820152948616608086015292851660a0850152931660c083015291151560e08201529015156101009091015292915050565b5f602082016020835280845180835260408501915060408160051b8601019250602086015f5b8281101561207157868503603f19018452815180516001600160a01b0316865260208101516101206020880152611fb5610120880182611eca565b905060408201518782036040890152611fce8282611eca565b91505060608201518782036060890152611fe88282611eca565b915050608082015187820360808901526120028282611eca565b91505060a082015161201960a089018260ff169052565b5060c082015161202e60c089018260ff169052565b5060e082015161204360e089018260ff169052565b50610100820151915061205b61010088018315159052565b9550506020938401939190910190600101611f7a565b50929695505050505050565b5f5f5f5f5f5f60c08789031215612092575f5ffd5b863567ffffffffffffffff8111156120a8575f5ffd5b6120b489828a01611d31565b965050602087013594506120ca60408801611dbc565b93506120d860608801611dbc565b92506120e660808801611dbc565b91506120f460a08801611dbc565b90509295509295509295565b5f5f60408385031215612111575f5ffd5b8235915060208301356001600160a01b038116811461212e575f5ffd5b809150509250929050565b5f5f6040838503121561214a575f5ffd5b50508035926020909101359150565b6001600160a01b038a168152610120602082018190525f9061217d9083018b611eca565b828103604084015261218f818b611eca565b905082810360608401526121a3818a611eca565b905082810360808401526121b78189611eca565b91505060ff861660a083015260ff851660c083015260ff841660e08301528215156101008301529a9950505050505050505050565b634e487b7160e01b5f52601160045260245ffd5b60ff8181168382160190811115612219576122196121ec565b92915050565b600181811c9082168061223357607f821691505b60208210810361225157634e487b7160e01b5f52602260045260245ffd5b50919050565b601f821115611d1857805f5260205f20601f840160051c8101602085101561227c5750805b601f840160051c820191505b8181101561229b575f8155600101612288565b5050505050565b815167ffffffffffffffff8111156122bc576122bc611d1d565b6122d0816122ca845461221f565b84612257565b6020601f821160018114612305575f83156122eb5750848201515b600184901b5f19600386901b1c198216175b85555061229b565b5f84815260208120601f198516915b828110156123345787850151825560209485019460019092019101612314565b508482101561235157868401515f19600387901b60f8161c191681555b50505050600190811b01905550565b634e487b7160e01b5f52603260045260245ffd5b5f60018201612385576123856121ec565b5060010190565b5f60ff821660ff81036123a1576123a16121ec565b60010192915050565b60208082526022908201527f4f6e6c792061646d696e2063616e20706572666f726d2074686973206163746960408201526137b760f11b606082015260800190565b838152606060208201525f6124046060830185611eca565b9050826040830152949350505050565b80820180821115612219576122196121ec565b818103612432575050565b61243c825461221f565b67ffffffffffffffff81111561245457612454611d1d565b612462816122ca845461221f565b5f601f821160018114612491575f83156122eb575081850154600184901b5f19600386901b1c198216176122fd565b5f8581526020808220868352908220601f198616925b838110156124c757828601548255600195860195909101906020016124a7565b50858310156124e457818501545f19600388901b60f8161c191681555b5050505050600190811b0190555056fea264697066735822122050110d5c986c58651ef1f10147e406bd7c5d3ed85db3e8b27395969424e0334864736f6c634300081e0033",
  "linkReferences": {},
  "deployedLinkReferences": {},
  "immutableReferences": {},
  "inputSourceName": "project/contracts/scholarship.sol",
  "buildInfoId": "solc-0_8_30-da8937e80b74ede38f49e2c84b82b0814d5004be"
}